:020000040800F2
:1000000078060020AD030008390F00083B0F0008F8
:100010003F0F0008430F0008470F000800000000D2
:100020000000000000000000000000004B0F00086E
:100030004D0F0008000000004F0F0008510F00088E
:10004000C7030008C7030008C7030008C703000868
:10005000C7030008C7030008C7030008C703000858
:10006000C7030008C7030008C7030008C703000848
:10007000C7030008C7030008C7030008C703000838
:10008000C7030008C7030008C7030008C703000828
:10009000C7030008C7030008C7030008C703000818
:1000A000C7030008C7030008C7030008C703000808
:1000B000C7030008C7030008C7030008C7030008F8
:1000C000C7030008C7030008C7030008C7030008E8
:1000D000C7030008C7030008C7030008C7030008D8
:1000E000C7030008C7030008C7030008C7030008C8
:1000F000C7030008C7030008C7030008C7030008B8
:10010000C7030008C7030008C7030008C7030008A7
:10011000C7030008C7030008C7030008C703000897
:10012000C7030008C7030008C7030008C703000887
:1001300000F002F800F03AF80AA090E8000C8244BF
:100140008344AAF10107DA4501D100F02FF8AFF29C
:10015000090EBAE80F0013F0010F18BFFB1A43F0A5
:100160000103184798140000B8140000103A24BF87
:1001700078C878C1FAD8520724BF30C830C144BF0C
:1001800004680C607047000000230024002500264E
:10019000103A28BF78C1FBD8520728BF30C148BFEA
:1001A0000B6070471FB51FBD10B510BD00F0D4FE29
:1001B0001146FFF7F7FF00F0B1FE00F0F2FE03B4C6
:1001C000FFF7F2FF03BC00F0F9FE00000CB50020C1
:1001D000019000906C48006840F480306A490860E3
:1001E00000BF6948006800F4003000900198401C8E
:1001F0000190009818B90198B0F5A06FF1D162484C
:10020000006800F4003010B10120009001E00020EF
:1002100000900098012843D15C48006840F010002D
:100220005A4908600846006820F003000860084644
:10023000006840F002000860534840685249486036
:100240000846406848600846406840F4806048605E
:100250000846406820F47C1048600846406840F436
:10026000E81048600846006840F08070086000BFF1
:100270004548006800F000700028F9D04248406806
:1002800020F00300404948600846406840F0020002
:10029000486000BF3C48406800F00C000828F9D1D5
:1002A0000CBD10B5FFF792FF10BD10B536480068C1
:1002B00040F001003449086008464068344908406D
:1002C0003149486008460068324908402E490860B4
:1002D0000846006820F4802008600846406820F442
:1002E000FE0048604FF41F008860FFF7DAFF4FF010
:1002F00000602949086010BD10B5002100200022CF
:10030000214B5B6803F00C0121B1042906D00829B8
:1003100028D107E0214B224C236027E01F4B204CC3
:10032000236023E0184B5B6803F47010164B5B6886
:1003300003F48032022303EB904022B9194B43436C
:10034000174C23600DE0104B5B6803F4003323B1BE
:10035000144B4343124C236003E0104B4343104CB7
:10036000236003E00D4B0E4C236000BF00BF064B23
:100370005B68C3F303130C4CE15C094B1B68CB4077
:10038000074C236010BD0000001002400020024016
:100390000000FFF8FFFFF6FE08ED00E000127A0013
:1003A0000000002000093D000400002009488047AB
:1003B00009480047FEE7FEE7FEE7FEE7FEE7FEE747
:1003C000FEE7FEE7FEE7FEE704480549054A064B5F
:1003D00070470000AB0200083101000878000020DF
:1003E000780600207802002078020020FC4908806E
:1003F0007047FB49891E0880704700B50120FFF750
:10040000F8FF1120FFF7F5FF3A20FFF7F2FF552024
:10041000FFF7ECFF2920FFF7ECFF3620FFF7E9FF9D
:10042000CA20FFF7E3FF00BD00B5EE48406940F485
:100430008070EC4948610846806940F00800886196
:100440000846806940F0200088610846806940F0D5
:10045000400088610846806940F480708861E24805
:10046000006820F00F00E04908600846006840F08E
:1004700003000860DD480068DD490840DB4908608A
:1004800008460068DB490843D8490860081F00682F
:1004900000F0FF20091F08600846006840F0BB100C
:1004A0000860D54800680020D34908600846006805
:1004B00040F0BB300860081F006820F07040091F42
:1004C00008600846006840F030400860CB4840684B
:1004D00020F47020C94948600846406840F4302044
:1004E00048600846006820F00F0008600846006871
:1004F00040F00B00086000204FF020418861C86187
:10050000BF4908604FF02040806940F480504FF0B0
:10051000204188610846806940F48040886108462F
:10052000806940F0100088610846C069C8610846CB
:10053000C06940F00100C8610846C06940F47060BD
:10054000C861AF480068C1F81C01AD480068C1F837
:100550001C010846D0F81C0140F44070C1F81C0191
:100560000846806940F001008861FFF746FF9E4819
:100570001030006840F001009B491031086000BD58
:1005800010B503460C462A20FFF733FF1812FFF779
:100590002DFFD8B2FFF72AFF0120FFF727FF3F20EA
:1005A000FFF724FF2B20FFF724FF2012FFF71EFF89
:1005B000E0B2FFF71BFF0120FFF718FFDF20FFF776
:1005C00015FF2C20FFF715FF1046FFF70FFF10BD9A
:1005D000F0B507460C46059D00262A20FFF709FFC7
:1005E0002012FFF703FFE0B2FFF700FF1119491EC9
:1005F000C1F30F20FFF7FAFE1119491EC8B2FFF729
:10060000F5FE2B20FFF7F5FE1812FFF7EFFED8B22C
:10061000FFF7ECFEE918491EC1F30F20FFF7E6FED5
:10062000E918491EC8B2FFF7E1FE2C20FFF7E1FEF2
:1006300000BF03E03846FFF7D9FE761C02FB05F049
:10064000B042F7D8F0BD0FB583B006980A287CD227
:10065000DFE800F0055A7CD8FCFBFAF9F8F70A202D
:1006600000900598963080B2029004980A3080B2CB
:1006700001903C220146DDE90230FFF7A9FF41204D
:1006800000900598553080B202900498463080B2B0
:1006900001900A220146DDE90230FFF799FF41206F
:1006A000009005980A3080B202900498463080B2DB
:1006B00001900A220146DDE90230FFF789FF0A2096
:1006C000009004980A3080B202903C220146059BBB
:1006D0000398FFF77DFF4120009005980A3080B213
:1006E00003460A220290DDE90301FFF771FF412072
:1006F00000900598553080B203460A220290DDE949
:100700000301FFF765FF9CE24120009005985530FA
:1007100080B202900498463080B201900A220146CD
:10072000DDE90230FFF754FF4120009005980A30C0
:1007300080B202900498463080B201900A220146AD
:10074000DDE90230FFF744FF7BE279E20A20009006
:100750000598963080B2029004980A3080B20190D9
:100760003C220146DDE90230FFF732FF41200090D4
:100770000598553080B202900498463080B20190BE
:100780000A220146DDE90230FFF722FF0A2000902D
:1007900004980A3080B202903C220146059B0398DF
:1007A000FFF716FF4120009005980A3080B20346FB
:1007B0000A220290DDE90301FFF70AFF0A200090F8
:1007C00005984B3080B2029004980A3080B20190B4
:1007D0003C220146DDE90230FFF7FAFE31E200007B
:1007E0000008006C00100240000C0140041401409D
:1007F00000F0FF00BB0B00BB0418014000200140CB
:100800001C0100A00A2000900598963080B202904A
:1008100004980A3080B201903C220146DDE90230A2
:10082000FFF7D6FE412000900598553080B2029027
:100830000498463080B201900A220146DDE9023078
:1008400005E0A4E13EE10CE1B6E06CE02EE0FFF74C
:10085000BFFE4120009005980A3080B202900498B3
:10086000463080B201900A220146DDE90230FFF7EE
:10087000AFFE0A20009004980A3080B202903C2219
:100880000146059B0398FFF7A3FE0A2000900598F8
:100890004B3080B2029004980A3080B201903C2222
:1008A0000146DDE90230FFF793FECAE141200090E6
:1008B0000598553080B202900498463080B201907D
:1008C0000A220146DDE90230FFF782FE4120009056
:1008D00005980A3080B202900498463080B20190A8
:1008E0000A220146DDE90230FFF772FE4120009046
:1008F0000598553080B203460A220290DDE90301D3
:10090000FFF766FE0A20009005984B3080B20290F7
:1009100004980A3080B201903C220146DDE90230A1
:10092000FFF756FE8DE10A2000900598963080B2C0
:10093000029004980A3080B201903C220146DDE921
:100940000230FFF745FE4120009005980A3080B242
:1009500002900498463080B201900A220146DDE9F7
:100960000230FFF735FE0A20009004980A3080B26A
:1009700002903C220146059B0398FFF729FE412087
:1009800000900598553080B203460A220290DDE9B6
:100990000301FFF71DFE0A20009005984B3080B23E
:1009A000029004980A3080B201903C220146DDE9B1
:1009B0000230FFF70DFE44E10A20009005989630C2
:1009C00080B2029004980A3080B201903C22014625
:1009D000DDE90230FFF7FCFD4120009005980A3068
:1009E00080B202900498463080B201900A220146FB
:1009F000DDE90230FFF7ECFD0A20009004980A3090
:100A000080B202903C220146059B0398FFF7E0FD6F
:100A10004120009005980A3080B203460A220290D5
:100A2000DDE90301FFF7D4FD412000900598553022
:100A300080B203460A220290DDE90301FFF7C8FDF8
:100A40000A20009005984B3080B2029004980A303A
:100A500080B201903C220146DDE90230FFF7B8FD8B
:100A6000EFE00A2000900598963080B2029004983A
:100A70000A3080B201903C220146DDE90230FFF7E6
:100A8000A7FD412000900598553080B2029004984F
:100A9000463080B201900A220146DDE90230FFF7BC
:100AA00097FD4120009005980A3080B2029004988A
:100AB000463080B201900A220146DDE90230FFF79C
:100AC00087FDBEE00A2000900598963080B2029023
:100AD00004980A3080B201903C220146DDE90230E0
:100AE000FFF776FD412000900598553080B20290C6
:100AF0000498463080B201900A220146DDE90230B6
:100B0000FFF766FD4120009005980A3080B2029000
:100B10000498463080B201900A220146DDE9023095
:100B2000FFF756FD0A20009004980A3080B2029028
:100B30003C220146059B0398FFF74AFD41200090A7
:100B400005980A3080B203460A220290DDE90301CB
:100B5000FFF73EFD412000900598553080B20346D6
:100B60000A220290DDE90301FFF732FD0A2000901E
:100B700005984B3080B2029004980A3080B2019000
:100B80003C220146DDE90230FFF722FD59E00A2050
:100B900000900598963080B2029004980A3080B296
:100BA00001903C220146DDE90230FFF711FD4120B2
:100BB00000900598553080B202900498463080B27B
:100BC00001900A220146DDE90230FFF701FD4120D4
:100BD000009005980A3080B202900498463080B2A6
:100BE00001900A220146DDE90230FFF7F1FC0A20FC
:100BF000009004980A3080B202903C220146059B86
:100C00000398FFF7E5FC412000900598553080B22D
:100C100003460A220290DDE90301FFF7D9FC0A200E
:100C2000009005984B3080B2029004980A3080B250
:100C300001903C220146DDE90230FFF7C9FC00E0EB
:100C400000BF00BF07B000BD2DE9F04F04460D46C0
:100C500016469A46DDF8249010224FF0080B202EFD
:100C600001DB7F2E01DDBDE8F08FA6F12000C6B2CA
:100C70002A20FFF7BEFB2012FFF7B8FBE0B2FFF718
:100C8000B5FB0BEB0401491EC1F30F20FFF7AEFBD0
:100C90000BEB0401491EC8B2FFF7A8FB2B20FFF79E
:100CA000A8FB2812FFF7A2FBE8B2FFF79FFB511940
:100CB000491EC1F30F20FFF799FB5119491EC8B215
:100CC000FFF794FB2C20FFF794FB002327E04FF065
:100CD00000081DE0002715E08E4800EB06100121FA
:100CE00001EB4701C91A405C40FA08F000F001002E
:100CF00018B15046FFF77AFB02E04846FFF776FB53
:100D0000781CC7B25F45E7DB08F1010000F0FF087F
:100D100002EBD271B8EB610FDCDB581CC3B2D11708
:100D200002EB5171B3EBE10FD1DB00BF9BE72DE983
:100D3000F04F04460D4617469A46DDF824901022DF
:100D40009346032F01DBBDE8F08F2A20FFF751FB0C
:100D50002012FFF74BFBE0B2FFF748FB0BEB04015F
:100D6000491EC1F30F20FFF741FB0BEB0401491EA5
:100D7000C8B2FFF73BFB2B20FFF73BFB2812FFF726
:100D800035FBE8B2FFF732FB5119491EC1F30F20C2
:100D9000FFF72CFB5119491EC8B2FFF727FB2C2087
:100DA000FFF727FB002327E04FF000081DE0002697
:100DB00015E0594800EB4710012101EB4601C91A23
:100DC000405C40FA08F000F0010018B15046FFF70F
:100DD0000DFB02E04846FFF709FB701CC6B25E45FA
:100DE000E7DB08F1010000F0FF0802EBD271B8EB7D
:100DF000610FDCDB581CC3B2D11702EB5171B3EBAE
:100E0000E10FD1DB00BF9EE72DE9FF4F04460D4601
:100E1000914610264FF0080BB9F1200F02DBB9F113
:100E20007F0F01DDBDE8FF8FA9F1200000F0FF0971
:100E30002A20FFF7DEFA2012FFF7D8FAE0B2FFF718
:100E4000D5FA0BEB0401491EC1F30F20FFF7CEFAD0
:100E50000BEB0401491EC8B2FFF7C8FA2B20FFF7BD
:100E6000C8FA2812FFF7C2FAE8B2FFF7BFFA711901
:100E7000491EC1F30F20FFF7B9FA7119491EC8B214
:100E8000FFF7B4FA2C20FFF7B4FA00273AE04FF04E
:100E9000000A30E04FF0000827E01E4800EB091080
:100EA000012101EB4801C91B405C40FA0AF000F047
:100EB0000100B0B14FB905EB0A0291B204EB080290
:100EC00090B2039AFFF75CFB0BE0012F09D105EB11
:100ED0000A02D21D91B204EB080290B2039AFFF706
:100EE0004FFB08F1010000F0FF08D845D5DB0AF1FF
:100EF000010000F0FF0A06EBD671BAEB610FC9DB07
:100F0000781CC7B2F11706EB5171B7EBE10FBEDBEE
:100F100000BF87E7CA0F0008BA15000808B5FFF739
:100F200083FA08E06420DC2302460021009040F2AE
:100F3000E470FFF74DFBF5E7704700BFFEE700BF29
:100F4000FEE700BFFEE700BFFEE77047704770474F
:100F50007047704770477047754600F02BF8AE46F3
:100F600005006946534620F00700854618B020B5B5
:100F7000FFF72AFABDE820404FF000064FF00007C7
:100F80004FF000084FF0000B21F00701AC46ACE831
:100F9000C009ACE8C009ACE8C009ACE8C0098D469E
:100FA000704710B50446AFF300802046BDE81040FE
:100FB000FFF705B9004870471400002001491820C8
:100FC000ABBEFEE7260002007047000000000000F4
:100FD0000000000000000000000000000000000011
:100FE0001FCC000C000000000000000008003000D2
:100FF00060000800300060000000022003FC1E209A
:10100000022003FC1E200220000000000E18110424
:101010003FFF10840C78000000000F0010840F3890
:1010200000C0077818840078000000780F8410C48E
:1010300011240E9800E40084000808006800700085
:1010400000000000000000000000000000000000A0
:1010500007E01818200440020000000040022004AD
:10106000181807E000000000000002400240018064
:101070000FF00180024002400000008000800080EC
:101080000FF800800080008000000001000D000EBD
:101090000000000000000000000000000080008050
:1010A000008000800080008000800000000C000CA8
:1010B0000000000000000000000000000006001812
:1010C00000600180060018002000000007F00808FA
:1010D00010041004080807F00000000008040804C9
:1010E0001FFC000400040000000000000E0C10149F
:1010F0001024104411840E0C000000000C18100481
:101100001104110412880C700000000000E003209C
:10111000042408241FFC0024000000001F981084F1
:1011200011041104108810700000000007F00888F6
:101130001104110418880070000000001C00100049
:1011400010FC13001C001000000000000E381144B9
:101150001084108411440E38000000000700088C31
:1011600010441044088807F0000000000000000050
:10117000030C030C00000000000000000000000150
:101180000106000000000000000000000080014097
:10119000022004100808100400000220022002208F
:1011A0000220022002200220000000001004080893
:1011B0000410022001400080000000000E00120018
:1011C000100C106C10800F00000003E00C1813E4EA
:1011D000142417C4082807D000000004003C03C4EE
:1011E0001C40074000E4001C000410041FFC110414
:1011F000110411040E880070000003E00C181004A4
:101200001004100410081C10000010041FFC10042F
:1012100010041004080807F0000010041FFC11045B
:10122000110417C410040818000010041FFC110456
:10123000110017C010000800000003E00C18100493
:10124000100410441C780040000010041FFC10849F
:101250000080008010841FFC1004000010041004A3
:101260001FFC100410040000000000030001100126
:1012700010011FFE10001000000010041FFC1104DC
:1012800003801464181C1004000010041FFC1004D8
:10129000000400040004000C000010041FFC1F00E8
:1012A00000FC1F001FFC1004000010041FFC0C04B5
:1012B000030000E010181FFC100007F008081004DD
:1012C00010041004080807F0000010041FFC10842C
:1012D0001080108010800F00000007F00818102404
:1012E0001024101C080A07F2000010041FFC11044F
:1012F000110011C011300E0C000400000E1C11046E
:101300001084108410441C380000180010001004D1
:101310001FFC100410001800000010001FF810043B
:101320000004000410041FF8100010001E0011E05B
:10133000001C007013801C0010001FC0103C00E057
:101340001F0000E0103C1FC000001004180C1634F1
:1013500001C001C01634180C100410001C00130446
:1013600000FC13041C00100000000804101C106492
:10137000108413041C04101800000000000000007A
:101380007FFE4002400240020000000030000C00DE
:1013900003800060001C00030000000040024002C7
:1013A00040027FFE0000000000000000000020005E
:1013B000400040004000200000000001000100014A
:1013C0000001000100010001000100004000400098
:1013D0002000000000000000000000000098012430
:1013E00001440144014400FC000410001FFC00887B
:1013F00001040104008800700000000000700088F3
:10140000010401040104008800000000007000884D
:101410000104010411081FFC0004000000F801444D
:1014200001440144014400C800000000010401041B
:101430000FFC1104110411001800000000D601294E
:101440000129012901C90106000010041FFC0084C4
:1014500001000100010400FC000400000104190463
:1014600019FC00040004000000000000000300015B
:101470000101190119FE0000000010041FFC0024E6
:10148000004001B4010C010400000000100410042D
:101490001FFC0004000400000000010401FC010422
:1014A000010001FC0104010000FC010401FC0084B6
:1014B00001000100010400FC0004000000F8010428
:1014C00001040104010400F80000010101FF00858E
:1014D0000104010400880070000000000070008812
:1014E00001040104010501FF00010104010401FCE4
:1014F00000840104010001800000000000CC0124F0
:1015000001240124012401980000000001000100D1
:1015100007F80104010400000000010001F80004C4
:1015200000040004010801FC0004010001800170B6
:10153000000C001001600180010001F0010C00307E
:1015400001C00030010C01F0010000000104018C19
:1015500000740170018C010400000101018101711E
:10156000000E001801600180010000000184010CE0
:10157000013401440184010C00000000000000005F
:10158000000001003EFC400240020000000000009C
:101590000000FFFF000000000000000040024002C9
:1015A0003EFC010000000000000000006000800020
:1015B000800040004000200020000000000010F8E3
:1015C00010887F88108810F80000000800103FE0A5
:1015D0002480248024903FF80000410120821044A0
:1015E000000013E412A47EBF12A413E408000A084A
:1015F000249247FF250814920FFF00001C160008D4
:1016000000000020140000006C01000830160008E3
:1016100014000020640600008801000800A24A04AB
:101620000000000000000000010203040607080992
:04000005080003AD3F
:00000001FF
