:020000040800F2
:1000000078060020AD030008750C0008770C000886
:100010007B0C00087F0C0008830C00080000000027
:10002000000000000000000000000000870C000835
:10003000890C0008000000008B0C00088D0C0008E3
:10004000C7030008C7030008C7030008C703000868
:10005000C7030008C7030008C7030008C703000858
:10006000C7030008C7030008C7030008C703000848
:10007000C7030008C7030008C7030008C703000838
:10008000C7030008C7030008C7030008C703000828
:10009000C7030008C7030008C7030008C703000818
:1000A000C7030008C7030008C7030008C703000808
:1000B000C7030008C7030008C7030008C7030008F8
:1000C000C7030008C7030008C7030008C7030008E8
:1000D000C7030008C7030008C7030008C7030008D8
:1000E000C7030008C7030008C7030008C7030008C8
:1000F000C7030008C7030008C7030008C7030008B8
:10010000C7030008C7030008C7030008C7030008A7
:10011000C7030008C7030008C7030008C703000897
:10012000C7030008C7030008C7030008C703000887
:1001300000F002F800F03AF80AA090E8000C8244BF
:100140008344AAF10107DA4501D100F02FF8AFF29C
:10015000090EBAE80F0013F0010F18BFFB1A43F0A5
:1001600001031847A40B0000C40B0000103A24BF81
:1001700078C878C1FAD8520724BF30C830C144BF0C
:1001800004680C607047000000230024002500264E
:10019000103A28BF78C1FBD8520728BF30C148BFEA
:1001A0000B6070471FB51FBD10B510BD00F072FD8C
:1001B0001146FFF7F7FF00F016FD00F090FD03B4C5
:1001C000FFF7F2FF03BC00F097FD00000CB5002024
:1001D000019000906C48006840F480306A490860E3
:1001E00000BF6948006800F4003000900198401C8E
:1001F0000190009818B90198B0F5A06FF1D162484C
:10020000006800F4003010B10120009001E00020EF
:1002100000900098012843D15C48006840F010002D
:100220005A4908600846006820F003000860084644
:10023000006840F002000860534840685249486036
:100240000846406848600846406840F4806048605E
:100250000846406820F47C1048600846406840F436
:10026000E81048600846006840F08070086000BFF1
:100270004548006800F000700028F9D04248406806
:1002800020F00300404948600846406840F0020002
:10029000486000BF3C48406800F00C000828F9D1D5
:1002A0000CBD10B5FFF792FF10BD10B536480068C1
:1002B00040F001003449086008464068344908406D
:1002C0003149486008460068324908402E490860B4
:1002D0000846006820F4802008600846406820F442
:1002E000FE0048604FF41F008860FFF7DAFF4FF010
:1002F00000602949086010BD10B5002100200022CF
:10030000214B5B6803F00C0121B1042906D00829B8
:1003100028D107E0214B224C236027E01F4B204CC3
:10032000236023E0184B5B6803F47010164B5B6886
:1003300003F48032022303EB904022B9194B43436C
:10034000174C23600DE0104B5B6803F4003323B1BE
:10035000144B4343124C236003E0104B4343104CB7
:10036000236003E00D4B0E4C236000BF00BF064B23
:100370005B68C3F303130C4CE15C094B1B68CB4077
:10038000074C236010BD0000001002400020024016
:100390000000FFF8FFFFF6FE08ED00E000127A0013
:1003A0000000002000093D000400002009488047AB
:1003B00009480047FEE7FEE7FEE7FEE7FEE7FEE747
:1003C000FEE7FEE7FEE7FEE704480549054A064B5F
:1003D00070470000AB0200083101000878000020DF
:1003E000780600207802002078020020FE4908806C
:1003F0007047FD49891E08807047F0B507460C46D6
:10040000059D00262A20FFF7F4FF2012FFF7EEFFDC
:10041000E0B2FFF7EBFF1119491EC1F30F20FFF700
:10042000E5FF1119491EC8B2FFF7E0FF2B20FFF7C7
:10043000E0FF1812FFF7DAFFD8B2FFF7D7FFE9188D
:10044000491EC1F30F20FFF7D1FFE918491EC8B2BA
:10045000FFF7CCFF2C20FFF7CCFF00BF03E03846AE
:10046000FFF7C4FF761C02FB05F0B042F7D8F0BDE1
:10047000002100E0491C8142FCD370470FB583B0D6
:1004800006980A287CD2DFE800F0055A7CC5FEFDFC
:10049000FCFBFAF90A2000900598963080B2029091
:1004A00004980A3080B201903C220146DDE9023016
:1004B000FFF7A3FF412000900598553080B20290CD
:1004C0000498463080B201900A220146DDE90230EC
:1004D000FFF793FF4120009005980A3080B2029008
:1004E0000498463080B201900A220146DDE90230CC
:1004F000FFF783FF0A20009004980A3080B2029030
:100500003C220146059B0398FFF777FF41200090AE
:1005100005980A3080B203460A220290DDE9030101
:10052000FFF76BFF412000900598553080B20346DD
:100530000A220290DDE90301FFF75FFF8DE241200F
:1005400000900598553080B202900498463080B2F1
:1005500001900A220146DDE90230FFF74EFF4120FB
:10056000009005980A3080B202900498463080B21C
:1005700001900A220146DDE90230FFF73EFF6CE2FE
:100580006AE20A2000900598963080B202900498A2
:100590000A3080B201903C220146DDE90230FFF7CB
:1005A0002CFF412000900598553080B202900498AD
:1005B000463080B201900A220146DDE90230FFF7A1
:1005C0001CFF0A20009004980A3080B202903C225E
:1005D0000146059B0398FFF710FF41200090059806
:1005E0000A3080B203460A220290DDE90301FFF7D8
:1005F00004FF0A20009005984B3080B202900498C6
:100600000A3080B201903C220146DDE90230FFF75A
:10061000F4FE22E20A2000900598963080B2029003
:1006200004980A3080B201903C220146DDE9023094
:10063000FFF7E3FE412000900598553080B202900C
:100640000498463080B201900A220146DDE902306A
:10065000FFF7D3FE4120009005980A3080B2029047
:100660000498463080B201900A220146DDE902304A
:10067000FFF7C3FE0A200090049805E093E12DE106
:10068000FBE0A1E057E019E00A3080B202903C2282
:100690000146059B0398FFF7B0FE0A2000900598DD
:1006A0004B3080B2029004980A3080B201903C2214
:1006B0000146DDE90230FFF7A0FECEE141200090C7
:1006C0000598553080B202900498463080B201906F
:1006D0000A220146DDE90230FFF78FFE412000903B
:1006E00005980A3080B202900498463080B201909A
:1006F0000A220146DDE90230FFF77FFE412000902B
:100700000598553080B203460A220290DDE90301C4
:10071000FFF773FE0A20009005984B3080B20290DC
:1007200004980A3080B201903C220146DDE9023093
:10073000FFF763FE91E10A2000900598963080B2A1
:10074000029004980A3080B201903C220146DDE913
:100750000230FFF752FE4120009005980A3080B227
:1007600002900498463080B201900A220146DDE9E9
:100770000230FFF742FE0A20009004980A3080B24F
:1007800002903C220146059B0398FFF736FE41206C
:1007900000900598553080B203460A220290DDE9A8
:1007A0000301FFF72AFE0A20009005984B3080B223
:1007B000029004980A3080B201903C220146DDE9A3
:1007C0000230FFF71AFE48E10A20009005989630A3
:1007D00080B2029004980A3080B201903C22014617
:1007E000DDE9023002E000000008006CFFF705FEC2
:1007F0004120009005980A3080B20290049846305B
:1008000080B201900A220146DDE90230FFF7F5FDD2
:100810000A20009004980A3080B202903C220146DF
:10082000059B0398FFF7E9FD4120009005980A30E9
:1008300080B203460A220290DDE90301FFF7DDFDE5
:10084000412000900598553080B203460A2202905C
:10085000DDE90301FFF7D1FD0A20009005984B3038
:1008600080B2029004980A3080B201903C22014686
:10087000DDE90230FFF7C1FDEFE00A2000900598A6
:10088000963080B2029004980A3080B201903C22E7
:100890000146DDE90230FFF7B0FD412000900598E8
:1008A000553080B202900498463080B201900A22FE
:1008B0000146DDE90230FFF7A0FD412000900598D8
:1008C0000A3080B202900498463080B201900A2229
:1008D0000146DDE90230FFF790FDBEE00A200090FE
:1008E0000598963080B2029004980A3080B2019048
:1008F0003C220146DDE90230FFF77FFD41200090F8
:100900000598553080B202900498463080B201902C
:100910000A220146DDE90230FFF76FFD4120009019
:1009200005980A3080B202900498463080B2019057
:100930000A220146DDE90230FFF75FFD0A20009040
:1009400004980A3080B202903C220146059B03982D
:10095000FFF753FD4120009005980A3080B203460E
:100960000A220290DDE90301FFF747FD41200090D4
:100970000598553080B203460A220290DDE9030152
:10098000FFF73BFD0A20009005984B3080B20290A3
:1009900004980A3080B201903C220146DDE9023021
:1009A000FFF72BFD59E00A2000900598963080B2A1
:1009B000029004980A3080B201903C220146DDE9A1
:1009C0000230FFF71AFD412000900598553080B2A3
:1009D00002900498463080B201900A220146DDE977
:1009E0000230FFF70AFD4120009005980A3080B2DE
:1009F00002900498463080B201900A220146DDE957
:100A00000230FFF7FAFC0A20009004980A3080B206
:100A100002903C220146059B0398FFF7EEFC412023
:100A200000900598553080B203460A220290DDE915
:100A30000301FFF7E2FC0A20009005984B3080B2DA
:100A4000029004980A3080B201903C220146DDE910
:100A50000230FFF7D2FC00E000BF00BF07B000BDCE
:100A600000B50120FFF7C5FC1120FFF7C2FC3A20BA
:100A7000FFF7BFFC5520FFF7B9FC2920FFF7B9FCB1
:100A80003620FFF7B6FCCA20FFF7B0FC00BD00B56A
:100A90006F48406940F480706D494861084680693C
:100AA00040F0080088610846806940F020008861B5
:100AB0000846806940F0400088610846806940F43B
:100AC000807088616348006820F00F006149086009
:100AD0000846006840F0030008605F4800685F490E
:100AE00008405D490860084600685D4908435A4966
:100AF0000860081F006800F0FF20091F0860084612
:100B0000006840F0BB100860564800680020554956
:100B100008600846006840F0BB300860081F0068A5
:100B200020F07040091F08600846006840F030401F
:100B300008604D48406820F470204B4948600846E2
:100B4000406840F4302048600846006820F00F00FC
:100B500008600846006840F00B00086000204FF075
:100B600020418861C861414908604FF02040806998
:100B700040F480504FF0204188610846806940F47D
:100B8000804088610846806940F01000886108460E
:100B9000C069C8610846C06940F00100C8610846E4
:100BA000C06940F47060C86130480068C1F81C0139
:100BB0002E480068C1F81C010846D0F81C0140F41A
:100BC0004070C1F81C010846806940F0010088614E
:100BD000FFF746FF1F481030006840F001001D4934
:100BE0001031086000BD08B50024FFF750FF4FF436
:100BF000A0700023F022194600901846FFF7FDFB75
:100C000025E04FF4A0700023F0221946009018460A
:100C1000FFF7F3FB1648FFF72BFCC4F10900C3B242
:100C20005022114640F2E470FFF728FC1048FFF70D
:100C30001FFCA02050231A46194600900020FFF701
:100C4000DCFB641C0A2094FBF0F100FB1144D8E7A4
:100C500000100240000C01400414014000F0FF00AD
:100C6000BB0B00BB04180140002001401C0100A088
:100C700000127A00704700BFFEE700BFFEE700BF2A
:100C8000FEE700BFFEE77047704770477047704748
:100C900070477047754600F02BF8AE460500694670
:100CA000534620F00700854618B020B5FFF78CFBAF
:100CB000BDE820404FF000064FF000074FF000085D
:100CC0004FF0000B21F00701AC46ACE8C009ACE8DE
:100CD000C009ACE8C009ACE8C0098D46704710B542
:100CE0000446AFF300802046BDE81040FFF767BA26
:100CF000004870471400002001491820ABBEFEE7F1
:100D00002600020070470000280D000800000020A7
:100D1000140000006C0100083C0D000814000020C5
:100D2000640600008801000800A24A0400000000D8
:0C0D30000000000001020304060708098F
:04000005080003AD3F
:00000001FF
