:020000040800F2
:1000000078060020AD030008890600088B0600086A
:100010008F060008930600089706000800000000FD
:100020000000000000000000000000009B06000827
:100030009D060008000000009F060008A1060008B9
:10004000C7030008C7030008C7030008C703000868
:10005000C7030008C7030008C7030008C703000858
:10006000C7030008C7030008C7030008C703000848
:10007000C7030008C7030008C7030008C703000838
:10008000C7030008C7030008C7030008C703000828
:10009000C7030008C7030008C7030008C703000818
:1000A000C7030008C7030008C7030008C703000808
:1000B000C7030008C7030008C7030008C7030008F8
:1000C000C7030008C7030008C7030008C7030008E8
:1000D000C7030008C7030008C7030008C7030008D8
:1000E000C7030008C7030008C7030008C7030008C8
:1000F000C7030008C7030008C7030008C7030008B8
:10010000C7030008C7030008C7030008C7030008A7
:10011000C7030008C7030008C7030008C703000897
:10012000C7030008C7030008C7030008C703000887
:1001300000F002F800F03AF80AA090E8000C8244BF
:100140008344AAF10107DA4501D100F02FF8AFF29C
:10015000090EBAE80F0013F0010F18BFFB1A43F0A5
:1001600001031847B8050000D8050000103A24BF65
:1001700078C878C1FAD8520724BF30C830C144BF0C
:1001800004680C607047000000230024002500264E
:10019000103A28BF78C1FBD8520728BF30C148BFEA
:1001A0000B6070471FB51FBD10B510BD00F07CFA85
:1001B0001146FFF7F7FF00F01EFA00F09AFA03B4B9
:1001C000FFF7F2FF03BC00F0A1FA00000CB500201D
:1001D000019000906C48006840F480306A490860E3
:1001E00000BF6948006800F4003000900198401C8E
:1001F0000190009818B90198B0F5A06FF1D162484C
:10020000006800F4003010B10120009001E00020EF
:1002100000900098012843D15C48006840F010002D
:100220005A4908600846006820F003000860084644
:10023000006840F002000860534840685249486036
:100240000846406848600846406840F4806048605E
:100250000846406820F47C1048600846406840F436
:10026000E81048600846006840F08070086000BFF1
:100270004548006800F000700028F9D04248406806
:1002800020F00300404948600846406840F0020002
:10029000486000BF3C48406800F00C000828F9D1D5
:1002A0000CBD10B5FFF792FF10BD10B536480068C1
:1002B00040F001003449086008464068344908406D
:1002C0003149486008460068324908402E490860B4
:1002D0000846006820F4802008600846406820F442
:1002E000FE0048604FF41F008860FFF7DAFF4FF010
:1002F00000602949086010BD10B5002100200022CF
:10030000214B5B6803F00C0121B1042906D00829B8
:1003100028D107E0214B224C236027E01F4B204CC3
:10032000236023E0184B5B6803F47010164B5B6886
:1003300003F48032022303EB904022B9194B43436C
:10034000174C23600DE0104B5B6803F4003323B1BE
:10035000144B4343124C236003E0104B4343104CB7
:10036000236003E00D4B0E4C236000BF00BF064B23
:100370005B68C3F303130C4CE15C094B1B68CB4077
:10038000074C236010BD0000001002400020024016
:100390000000FFF8FFFFF6FE08ED00E000127A0013
:1003A0000000002000093D000400002009488047AB
:1003B00009480047FEE7FEE7FEE7FEE7FEE7FEE747
:1003C000FEE7FEE7FEE7FEE704480549054A064B5F
:1003D00070470000AB0200083101000878000020DF
:1003E0007806002078020020780200209D490880CD
:1003F00070479C49891E08807047F0B507460C4637
:10040000059D00262A20FFF7F4FF2012FFF7EEFFDC
:10041000E0B2FFF7EBFF1119491EC1F30F20FFF700
:10042000E5FF1119491EC8B2FFF7E0FF2B20FFF7C7
:10043000E0FF1812FFF7DAFFD8B2FFF7D7FFE9188D
:10044000491EC1F30F20FFF7D1FFE918491EC8B2BA
:10045000FFF7CCFF2C20FFF7CCFF00BF03E03846AE
:10046000FFF7C4FF761C02FB05F0B042F7D8F0BDE1
:1004700000B50120FFF7BDFF1120FFF7BAFF3A20BA
:10048000FFF7B7FF5520FFF7B1FF2920FFF7B1FFB6
:100490003620FFF7AEFFCA20FFF7A8FF00BD00B56A
:1004A0007148406940F480706F494861084680692E
:1004B00040F0080088610846806940F020008861AB
:1004C0000846806940F0400088610846806940F431
:1004D000807088616548006820F00F0063490860FB
:1004E0000846006840F00300086061480068614900
:1004F00008405F490860084600685F4908435C4956
:100500000860081F006800F0FF20091F0860084607
:10051000006840F0BB100860584800680020574948
:1005200008600846006840F0BB300860081F00689B
:1005300020F07040091F08600846006840F0304015
:1005400008604F48406820F470204D4948600846D4
:10055000406840F4302048600846006820F00F00F2
:1005600008600846006840F00B00086000204FF06B
:1005700020418861C861434908604FF0204080698C
:1005800040F480504FF0204188610846806940F473
:10059000804088610846806940F010008861084604
:1005A000C069C8610846C06940F00100C8610846DA
:1005B000C06940F47060C86132480068C1F81C012D
:1005C00030480068C1F81C010846D0F81C0140F40E
:1005D0004070C1F81C010846806940F00100886144
:1005E000FFF746FF21481030006840F001001F4926
:1005F0001031086000BD08B5FFF751FF08E0642026
:1006000003460246014600904FF6E070FFF7F5FE04
:10061000F5E710B503460C462A20FFF7EAFE18124C
:10062000FFF7E4FED8B2FFF7E1FE0120FFF7DEFEA0
:100630003F20FFF7DBFE2B20FFF7DBFE2012FFF74A
:10064000D5FEE0B2FFF7D2FE0120FFF7CFFEDF209C
:10065000FFF7CCFE2C20FFF7CCFE1046FFF7C6FEBE
:1006600010BD00000008006C00100240000C0140AA
:100670000414014000F0FF00BB0B00BB0418014054
:10068000002001401C0100A0704700BFFEE700BF32
:10069000FEE700BFFEE700BFFEE770477047704708
:1006A0007047704770477047754600F02BF8AE46AC
:1006B00005006946534620F00700854618B020B56E
:1006C000FFF782FEBDE820404FF000064FF0000724
:1006D0004FF000084FF0000B21F00701AC46ACE8EA
:1006E000C009ACE8C009ACE8C009ACE8C0098D4657
:1006F000704710B50446AFF300802046BDE81040B7
:10070000FFF75DBD00487047140000200149182024
:10071000ABBEFEE726000200704700003C07000861
:1007200000000020140000006C01000850070008C1
:1007300014000020640600008801000800A24A049A
:100740000000000000000000010203040607080981
:04000005080003AD3F
:00000001FF
