:020000040800F2
:1000000078060020AD030008AD060008AF06000822
:10001000B3060008B7060008BB0600080000000091
:10002000000000000000000000000000BF06000803
:10003000C106000800000000C3060008C50600084D
:10004000C7030008C7030008C7030008C703000868
:10005000C7030008C7030008C7030008C703000858
:10006000C7030008C7030008C7030008C703000848
:10007000C7030008C7030008C7030008C703000838
:10008000C7030008C7030008C7030008C703000828
:10009000C7030008C7030008C7030008C703000818
:1000A000C7030008C7030008C7030008C703000808
:1000B000C7030008C7030008C7030008C7030008F8
:1000C000C7030008C7030008C7030008C7030008E8
:1000D000C7030008C7030008C7030008C7030008D8
:1000E000C7030008C7030008C7030008C7030008C8
:1000F000C7030008C7030008C7030008C7030008B8
:10010000C7030008C7030008C7030008C7030008A7
:10011000C7030008C7030008C7030008C703000897
:10012000C7030008C7030008C7030008C703000887
:1001300000F002F800F03AF80AA090E8000C8244BF
:100140008344AAF10107DA4501D100F02FF8AFF29C
:10015000090EBAE80F0013F0010F18BFFB1A43F0A5
:1001600001031847DC050000FC050000103A24BF1D
:1001700078C878C1FAD8520724BF30C830C144BF0C
:1001800004680C607047000000230024002500264E
:10019000103A28BF78C1FBD8520728BF30C148BFEA
:1001A0000B6070471FB51FBD10B510BD00F08EFA73
:1001B0001146FFF7F7FF00F00BFA00F0ACFA03B4BA
:1001C000FFF7F2FF03BC00F0B3FA00000CB500200B
:1001D000019000906C48006840F480306A490860E3
:1001E00000BF6948006800F4003000900198401C8E
:1001F0000190009818B90198B0F5A06FF1D162484C
:10020000006800F4003010B10120009001E00020EF
:1002100000900098012843D15C48006840F010002D
:100220005A4908600846006820F003000860084644
:10023000006840F002000860534840685249486036
:100240000846406848600846406840F4806048605E
:100250000846406820F47C1048600846406840F436
:10026000E81048600846006840F08070086000BFF1
:100270004548006800F000700028F9D04248406806
:1002800020F00300404948600846406840F0020002
:10029000486000BF3C48406800F00C000828F9D1D5
:1002A0000CBD10B5FFF792FF10BD10B536480068C1
:1002B00040F001003449086008464068344908406D
:1002C0003149486008460068324908402E490860B4
:1002D0000846006820F4802008600846406820F442
:1002E000FE0048604FF41F008860FFF7DAFF4FF010
:1002F00000602949086010BD10B5002100200022CF
:10030000214B5B6803F00C0121B1042906D00829B8
:1003100028D107E0214B224C236027E01F4B204CC3
:10032000236023E0184B5B6803F47010164B5B6886
:1003300003F48032022303EB904022B9194B43436C
:10034000174C23600DE0104B5B6803F4003323B1BE
:10035000144B4343124C236003E0104B4343104CB7
:10036000236003E00D4B0E4C236000BF00BF064B23
:100370005B68C3F303130C4CE15C094B1B68CB4077
:10038000074C236010BD0000001002400020024016
:100390000000FFF8FFFFF6FE08ED00E000127A0013
:1003A0000000002000093D000400002009488047AB
:1003B00009480047FEE7FEE7FEE7FEE7FEE7FEE747
:1003C000FEE7FEE7FEE7FEE704480549054A064B5F
:1003D00070470000AB0200083101000878000020DF
:1003E000780600207802002078020020A6490880C4
:1003F0007047A549891E0880704710B503460C4612
:100400002A20FFF7F6FF1812FFF7F0FFD8B2FFF728
:10041000EDFF0120FFF7EAFF3F20FFF7E7FF2B206A
:10042000FFF7E7FF2012FFF7E1FFE0B2FFF7DEFF83
:100430000120FFF7DBFFDF20FFF7D8FF2C20FFF7BD
:10044000D8FF1046FFF7D2FF10BD00B50120FFF71F
:10045000D0FF1120FFF7CDFF3A20FFF7CAFF55204C
:10046000FFF7C4FF2920FFF7C4FF3620FFF7C1FFC5
:10047000CA20FFF7BBFF00BD00B58448406940F4C7
:100480008070824948610846806940F008008861B0
:100490000846806940F0200088610846806940F085
:1004A000400088610846806940F48070886178481F
:1004B000006820F00F00764908600846006840F0A8
:1004C0000300086073480068734908407149086078
:1004D00008460068714908436E490860081F0068B3
:1004E00000F0FF20091F08600846006840F0BB10BC
:1004F00008606B4800680020694908600846006889
:1005000040F0BB300860081F006820F07040091FF1
:1005100008600846006840F0304008606148406864
:1005200020F470205F4948600846406840F430205D
:1005300048600846006820F00F0008600846006820
:1005400040F00B00086000204FF020418861C86136
:10055000554908604FF02040806940F480504FF0CA
:10056000204188610846806940F4804088610846DF
:10057000806940F0100088610846C069C86108467B
:10058000C06940F00100C8610846C06940F470606D
:10059000C86145480068C1F81C0143480068C1F8BB
:1005A0001C010846D0F81C0140F44070C1F81C0141
:1005B0000846806940F001008861FFF746FF344833
:1005C0001030006840F0010031491031086000BD72
:1005D0000A240A250026FFF74FFF54E0002650E0CA
:1005E000052E4BD2DFE806F0030F1E2D3C0006E07F
:1005F000002229462046FFF700FF601C84B21E2C13
:10060000F6DB0A243BE009E005F10A0081B24FF66F
:10061000FF722046FFF7F1FE601C84B21E2CF3DB54
:100620000A242CE009E005F1140081B24FF4FC62C9
:100630002046FFF7E2FE601C84B21E2CF3DB0A2486
:100640001DE009E005F11E0081B24FF4784220461A
:10065000FFF7D3FE601C84B21E2CF3DB0A240EE0ED
:1006600008E005F1280081B21F222046FFF7C5FEF1
:10067000601C84B21E2CF4DB0A2400E000BF00BF23
:10068000761C052EACDBA9E70008006C00100240C8
:10069000000C01400414014000F0FF00BB0B00BB44
:1006A00004180140002001401C0100A0704700BF59
:1006B000FEE700BFFEE700BFFEE700BFFEE77047B2
:1006C000704770477047704770477047754600F035
:1006D0002BF8AE4605006946534620F007008546D4
:1006E00018B020B5FFF770FEBDE820404FF00006BF
:1006F0004FF000074FF000084FF0000B21F007010A
:10070000AC46ACE8C009ACE8C009ACE8C009ACE84C
:10071000C0098D46704710B50446AFF300802046EF
:10072000BDE81040FFF74BBD0048704714000020A3
:1007300001491820ABBEFEE726000200704700000A
:100740006007000800000020140000006C01000891
:1007500074070008140000206406000088010008E7
:1007600000A24A040000000000000000010203048F
:040770000607080967
:04000005080003AD3F
:00000001FF
