:020000040800F2
:1000000068060020CD010008CD0400089902000810
:10001000C9040008870200089506000800000000D7
:10002000000000000000000000000000D1040008F3
:100030008B02000800000000CF040008BD05000886
:10004000E7010008E7010008E7010008E7010008F0
:10005000E7010008E7010008E7010008E7010008E0
:10006000E7010008E7010008E7010008E7010008D0
:10007000E7010008E7010008E7010008E7010008C0
:10008000E7010008E7010008E7010008E7010008B0
:10009000E7010008E7010008E7010008E7010008A0
:1000A000E7010008E7010008E7010008E701000890
:1000B000E70100083D06000869060008E70100089E
:1000C000E7010008E7010008E7010008E701000870
:1000D000E7010008E7010008E7010008E701000860
:1000E000E7010008E7010008E7010008E701000850
:1000F000E7010008E7010008E7010008E701000840
:10010000E7010008E7010008E7010008E70100082F
:10011000E7010008E7010008E7010008E70100081F
:10012000E7010008E7010008E7010008E70100080F
:1001300000F002F800F03AF80AA090E8000C8244BF
:100140008344AAF10107DA4501D100F02FF8AFF29C
:10015000090EBAE80F0013F0010F18BFFB1A43F0A5
:10016000010318478C050000AC050000103A24BFBD
:1001700078C878C1FAD8520724BF30C830C144BF0C
:1001800004680C607047000000230024002500264E
:10019000103A28BF78C1FBD8520728BF30C148BFEA
:1001A0000B6070471FB51FBD10B510BD00F031F8D2
:1001B0001146FFF7F7FF00F06FFA00F04FF803B4B5
:1001C000FFF7F2FF03BC00F057F800000948804732
:1001D00009480047FEE7FEE7FEE7FEE7FEE7FEE729
:1001E000FEE7FEE7FEE7FEE704480549054A064B41
:1001F00070470000DD05000831010008680000209C
:1002000068060020680200206802002070477047DE
:100210007047754600F02CF8AE4605006946534617
:1002200020F00700854618B020B5FFF7DDFFBDE8D8
:1002300020404FF000064FF000074FF000084FF04D
:10024000000B21F00701AC46ACE8C009ACE8C009DE
:10025000ACE8C009ACE8C0098D46704710B504464B
:10026000AFF300802046BDE81040FFF7A8BF0000B4
:10027000004870470400002001491820ABBEFEE78B
:1002800026000200704700BFFEE77047002100E033
:10029000491C8142FCD3704700BFFEE714488069C7
:1002A00040F00800124988610846806940F040002B
:1002B00088611048006820F470000E490860084604
:1002C000006840F4401008600B48006820F470009B
:1002D000094908600846006840F440100860202082
:1002E000054910310860034910310860704700006B
:1002F00000100240000C014000180140014601F0CE
:1003000007021202044B18684FF6FF031840034817
:100310001043014B186070470CED00E00000FA0537
:10032000254A926942F00802234B9A61234A1268D7
:1003300022F47002214B1A601A46126842F430020D
:100340001A601D4A926942F001021B4B9A611C4AD5
:10035000526822F440621A4B5A601A46526842F4BC
:1003600000625A60144AD26942F00202124BDA610A
:10037000144A1080121F1180124A143A128842F453
:10038000E042104B143B1A801A46128842F4006275
:100390001A800C4A0C3A128842F01002094B0C3BAE
:1003A0001A808022074B2C3B1A801A46128842F092
:1003B00001021A807047000000100240000C01404A
:1003C000000001402C040040124AD26942F00402AD
:1003D000104BDA61104A1080121F11800E4A203A29
:1003E000128842F001020C4B203B1A800A4A2C3A38
:1003F000128842F00102084B2C3B1A804523074A21
:100400001370074A126842F080424FF0E023C3F8AD
:1004100000217047001002402C0800401EE400E05C
:1004200000E100E007210020234A5268234B1A40D4
:10043000214B5A601A461268214B1A401E4B1A6013
:100440001A46126842F480321A6000BF1A4A1268D3
:10045000520C002AFAD04FF48062174B5A601A46A9
:10046000526842EA81425A601A46526842F4803227
:100470005A60144A126842F03202124B1A600E4A55
:10048000126842F080720C4B1A6000BF0A4A126870
:10049000520E002AFAD0084A526842F00202064B75
:1004A0005A6005E0044A5268C2F3870000F0030076
:1004B0000228F7D170470000001002400000FFF84A
:1004C000FFFFF6FE0020024000BFFEE770477047C6
:1004D000704710B500F002F810BD00000CB5002008
:1004E000019000903348006840F480303149086042
:1004F00000BF3048006800F4003000900198401CB4
:100500000190009818B90198B0F5A06FF1D1294871
:10051000006800F4003010B10120009001E00020DC
:1005200000900098012843D12348006840F0100053
:10053000214908600846006820F00300086008466A
:10054000006840F0020008601A4840681949486095
:100550000846406848600846406840F4806048604B
:100560000846406820F47C1048600846406840F423
:10057000E81048600846006840F08070086000BFDE
:100580000C48006800F000700028F9D00948406865
:1005900020F00300074948600846406840F0020028
:1005A000486000BF0348406800F00C000828F9D1FB
:1005B0000CBD0000001002400020024005480078F9
:1005C000401C0449087004480078401C0249087027
:1005D00070470000000000200100002010B5134803
:1005E000006840F001001149086008464068104961
:1005F00008400E494860084600680E4908400B490B
:1006000008600846006820F48020086008464068BA
:1006100020F4FE0048604FF41F008860FFF759FF88
:100620004FF000600449086010BD00000010024057
:100630000000FFF8FFFFF6FE08ED00E00848008824
:1006400000F0010028B10748006880F0200005494B
:1006500008600348008820F00100014908807047C5
:10066000100400400C0C01400848008800F0010014
:1006700028B10748006880F0200005490860034859
:10068000008820F0010001490880704710080040F0
:100690000C18014000BFFEE700240125FFF7C2FE51
:1006A000FFF7FCFD2F2142F20F70FFF739FE40F2F9
:1006B000077141F28730FFF787FE0520FFF71EFE26
:1006C00012E040F2DC50FFF7E1FD15B1601C84B28E
:1006D00001E0601E84B241F28830844200DD0025D2
:1006E00004B9012501480480EBE70000380400400C
:1006F0001007000800000020040000006C01000842
:1007000014070008040000206406000088010008A7
:0407100000000000E5
:04000005080001CD21
:00000001FF
