:020000040800F2
:1000000088060020BD04000895080008970800082D
:100010009B0800089F080008A308000800000000D3
:10002000000000000000000000000000A708000819
:10003000A908000800000000AB080008AD0800088F
:10004000D7040008D7040008D7040008D704000824
:10005000D7040008D7040008F5060008D7040008F4
:10006000C3060008D7040008D7040008D704000816
:10007000D7040008D7040008D7040008D7040008F4
:10008000D7040008D7040008D7040008D7040008E4
:10009000D7040008D7040008D7040008D7040008D4
:1000A000D7040008D7040008D7040008D7040008C4
:1000B000D7040008D7040008D7040008D7040008B4
:1000C000D7040008D7040008D7040008D7040008A4
:1000D000D7040008D7040008D7040008D704000894
:1000E00031070008D7040008D7040008D704000827
:1000F000D7040008D7040008D7040008D704000874
:10010000D7040008D7040008D7040008D704000863
:10011000D7040008D7040008D7040008D704000853
:10012000D7040008D7040008D7040008D704000843
:1001300000F002F800F03AF80AA090E8000C8244BF
:100140008344AAF10107DA4501D100F02FF8AFF29C
:10015000090EBAE80F0013F0010F18BFFB1A43F0A5
:1001600001031847C4070000E4070000103A24BF49
:1001700078C878C1FAD8520724BF30C830C144BF0C
:1001800004680C607047000000230024002500264E
:10019000103A28BF78C1FBD8520728BF30C148BFEA
:1001A0000B6070471FB51FBD10B510BD00F082FB7E
:1001B0001146FFF7F7FF00F0DFFA00F0A0FB03B4F1
:1001C000FFF7F2FF03BC00F0A7FB000007210020AF
:1001D000264A5268264B1A40244B5A601A46126827
:1001E000244B1A40214B1A601A46126842F480329E
:1001F0001A6000BF1D4A1268520C002AFAD04FF450
:1002000080621A4B5A601A46526842EA81425A602A
:100210001A46526842F480325A60174A126842F015
:100220003202154B1A60114A126842F080720F4B6D
:100230001A6000BF0D4A1268520E002AFAD00B4A0B
:10024000526842F00202094B5A6005E0074A5268C0
:10025000C2F3870000F003000228F7D170470021A5
:1002600000E0491C8142FCD37047000000100240AE
:100270000000FFF8FFFFF6FE0020024014488069EE
:1002800040F00800124988610846806940F040004B
:1002900088611048006820F470000E490860084624
:1002A000006840F4401008600B48006820F47000BB
:1002B000094908600846006840F4401008602020A2
:1002C000054910310860034910310860704700008B
:1002D00000100240000C0140001801400CB5002045
:1002E000019000906C48006840F480306A490860D2
:1002F00000BF6948006800F4003000900198401C7D
:100300000190009818B90198B0F5A06FF1D162483A
:10031000006800F4003010B10120009001E00020DE
:1003200000900098012843D15C48006840F010001C
:100330005A4908600846006820F003000860084633
:10034000006840F002000860534840685249486025
:100350000846406848600846406840F4806048604D
:100360000846406820F47C1048600846406840F425
:10037000E81048600846006840F08070086000BFE0
:100380004548006800F000700028F9D042484068F5
:1003900020F00300404948600846406840F00200F1
:1003A000486000BF3C48406800F00C000828F9D1C4
:1003B0000CBD10B5FFF792FF10BD10B536480068B0
:1003C00040F001003449086008464068344908405C
:1003D0003149486008460068324908402E490860A3
:1003E0000846006820F4802008600846406820F431
:1003F000FE0048604FF41F008860FFF7DAFF4FF0FF
:1004000000602949086010BD10B5002100200022BD
:10041000214B5B6803F00C0121B1042906D00829A7
:1004200028D107E0214B224C236027E01F4B204CB2
:10043000236023E0184B5B6803F47010164B5B6875
:1004400003F48032022303EB904022B9194B43435B
:10045000174C23600DE0104B5B6803F4003323B1AD
:10046000144B4343124C236003E0104B4343104CA6
:10047000236003E00D4B0E4C236000BF00BF064B12
:100480005B68C3F303130C4CE15C094B1B68CB4066
:10049000074C236010BD0000001002400020024005
:1004A0000000FFF8FFFFF6FE08ED00E000127A0002
:1004B0000000002000093D0004000020094880479A
:1004C00009480047FEE7FEE7FEE7FEE7FEE7FEE736
:1004D000FEE7FEE7FEE7FEE704480549054A064B4E
:1004E00070470000BB0300083101000888000020AD
:1004F000880600208802002088020020D4488069F5
:1005000040F04000D2498861D248006820F4706011
:10051000D04908600846006840F400600860CD4893
:100520000C30006840F00400CA490C310860C8482B
:10053000806940F00100C6498861C748806820F49E
:100540007060C54988600846806840F480608860B3
:10055000C248006840F00400C0490860BF480C3041
:10056000006840F00400BD490C3108606521BC48BA
:100570000170BC48006840F480704FF0E021C1F881
:1005800000017047B248806940F00400B0498861BA
:10059000B548006820F00F00B349086008460068BD
:1005A00040F008000860B0480C300068AE490C31DB
:1005B0000860A748806940F00100A5498861A64805
:1005C000806820F00F00A449886008468068886031
:1005D000A248006840F00100A04908609F480C3024
:1005E000006840F001009D490C31086035219C48AD
:1005F000801E01709B48006840F040004FF0E021F1
:10060000C1F8000170479248806940F0100090499D
:1006100088619648406820F47040944948600846D4
:10062000406840F4004048608948806940F001001B
:10063000874988618848006920F4704186480161D3
:10064000006940F40051844801618448006840F426
:1006500000608249086081480C30006840F4006006
:100660007E490C31086095217D48203001707D481D
:10067000001D006840F480704FF0E021C1F80401D3
:100680007348806940F0100071498861774840687C
:1006900020F47060754948600846406840F4006086
:1006A00048607047014601F007021202704B18685B
:1006B0004FF6FF0318406F4B184310436C4B186004
:1006C000704710B500240EE020206B4908606B488D
:1006D000FFF7C5FD20206849091F08606748FFF73C
:1006E000BEFD601CC4B20A2CEEDB04205B49143151
:1006F000086010BD10B500240FE0202055491431CA
:1007000008605E48FFF7ABFD2020524910310860B9
:100710005A48FFF7A4FD601CC4B20A2CEDDB4F4819
:100720001430006840F001004C491431086010BDDD
:1007300010B553480088002810DD5148008809286A
:100740000CDA4A488068C0F380204D490978491E78
:1007500088404C49097808434A490870484800884D
:10076000401C474908800A20FFF779FD4FF40060DC
:100770003A491431086010BDFFF728FDFFF77EFDF0
:100780000520FFF78FFFFFF7B9FEFFF7FBFEFFF72E
:100790003AFF20203849091F08602E4910310860AF
:1007A00055E039480068401C3749086034480088E3
:1007B0000B283CDB35480078702806D1314800789A
:1007C000702802D120202C49086030480078692820
:1007D00007D12C480078692803D120201D49143105
:1007E00008602A480078F02807D126480078702849
:1007F00003D120202049091F086024480078F028F0
:1008000007D120480078692803D1202011491031F0
:1008100008601C4800781D490870002018490880AD
:10082000184908704FF400600C49143108601848EA
:100830000068401E164908600846006838B944F64A
:100840002060086000200F4908700D490880A8E763
:100850000010024000180140000001400004014067
:1008600008E400E000E100E0000801400010014061
:100870000CED00E00000FA05140C014040420F00AE
:10088000180000202000002014000020210000207B
:100890001C000020704700BFFEE700BFFEE700BF5E
:1008A000FEE700BFFEE7704770477047704770472C
:1008B00070477047754600F02BF8AE460500694654
:1008C000534620F00700854618B020B5FFF704FE18
:1008D000BDE820404FF000064FF000074FF0000841
:1008E0004FF0000B21F00701AC46ACE8C009ACE8C2
:1008F000C009ACE8C009ACE8C0098D46704710B526
:100900000446AFF300802046BDE81040FFF757BC17
:10091000004870472400002001491820ABBEFEE7C4
:10092000260002007047000048090008000000206F
:10093000240000006C0100086C090008240000205D
:10094000640600008801000800A24A0400000000BC
:10095000000000000102030406070809000000006F
:0C09600000000000204E0000000000001D
:04000005080004BD2E
:00000001FF
