:020000040800F2
:1000000078060020BD040008F1060008F306000889
:10001000F7060008FB060008FF06000800000000C5
:1000200000000000000000000000000003070008BE
:10003000050700080000000007070008090700087E
:10004000D7040008D7040008D7040008D704000824
:10005000D7040008D704000857060008D704000892
:1000600025060008D7040008D7040008D7040008B4
:10007000D7040008D7040008D7040008D7040008F4
:10008000D7040008D7040008D7040008D7040008E4
:10009000D7040008D7040008D7040008D7040008D4
:1000A000D7040008D7040008D7040008D7040008C4
:1000B000D7040008D7040008D7040008D7040008B4
:1000C000D7040008D7040008D7040008D7040008A4
:1000D000D7040008D7040008D7040008D704000894
:1000E000D7040008D7040008D7040008D704000884
:1000F000D7040008D7040008D7040008D704000874
:10010000D7040008D7040008D7040008D704000863
:10011000D7040008D7040008D7040008D704000853
:10012000D7040008D7040008D7040008D704000843
:1001300000F002F800F03AF80AA090E8000C8244BF
:100140008344AAF10107DA4501D100F02FF8AFF29C
:10015000090EBAE80F0013F0010F18BFFB1A43F0A5
:10016000010318472006000040060000103A24BF93
:1001700078C878C1FAD8520724BF30C830C144BF0C
:1001800004680C607047000000230024002500264E
:10019000103A28BF78C1FBD8520728BF30C148BFEA
:1001A0000B6070471FB51FBD10B510BD00F0B0FA51
:1001B0001146FFF7F7FF00F06CFA00F0CEFA03B437
:1001C000FFF7F2FF03BC00F0D5FA00000721002082
:1001D000264A5268264B1A40244B5A601A46126827
:1001E000244B1A40214B1A601A46126842F480329E
:1001F0001A6000BF1D4A1268520C002AFAD04FF450
:1002000080621A4B5A601A46526842EA81425A602A
:100210001A46526842F480325A60174A126842F015
:100220003202154B1A60114A126842F080720F4B6D
:100230001A6000BF0D4A1268520E002AFAD00B4A0B
:10024000526842F00202094B5A6005E0074A5268C0
:10025000C2F3870000F003000228F7D170470021A5
:1002600000E0491C8142FCD37047000000100240AE
:100270000000FFF8FFFFF6FE0020024014488069EE
:1002800040F00800124988610846806940F040004B
:1002900088611048006820F470000E490860084624
:1002A000006840F4401008600B48006820F47000BB
:1002B000094908600846006840F4401008602020A2
:1002C000054910310860034910310860704700008B
:1002D00000100240000C0140001801400CB5002045
:1002E000019000906C48006840F480306A490860D2
:1002F00000BF6948006800F4003000900198401C7D
:100300000190009818B90198B0F5A06FF1D162483A
:10031000006800F4003010B10120009001E00020DE
:1003200000900098012843D15C48006840F010001C
:100330005A4908600846006820F003000860084633
:10034000006840F002000860534840685249486025
:100350000846406848600846406840F4806048604D
:100360000846406820F47C1048600846406840F425
:10037000E81048600846006840F08070086000BFE0
:100380004548006800F000700028F9D042484068F5
:1003900020F00300404948600846406840F00200F1
:1003A000486000BF3C48406800F00C000828F9D1C4
:1003B0000CBD10B5FFF792FF10BD10B536480068B0
:1003C00040F001003449086008464068344908405C
:1003D0003149486008460068324908402E490860A3
:1003E0000846006820F4802008600846406820F431
:1003F000FE0048604FF41F008860FFF7DAFF4FF0FF
:1004000000602949086010BD10B5002100200022BD
:10041000214B5B6803F00C0121B1042906D00829A7
:1004200028D107E0214B224C236027E01F4B204CB2
:10043000236023E0184B5B6803F47010164B5B6875
:1004400003F48032022303EB904022B9194B43435B
:10045000174C23600DE0104B5B6803F4003323B1AD
:10046000144B4343124C236003E0104B4343104CA6
:10047000236003E00D4B0E4C236000BF00BF064B12
:100480005B68C3F303130C4CE15C094B1B68CB4066
:10049000074C236010BD0000001002400020024005
:1004A0000000FFF8FFFFF6FE08ED00E000127A0002
:1004B0000000002000093D0004000020094880479A
:1004C00009480047FEE7FEE7FEE7FEE7FEE7FEE736
:1004D000FEE7FEE7FEE7FEE704480549054A064B4E
:1004E00070470000BB0300083101000878000020BD
:1004F0007806002078020020780200207048806989
:1005000040F040006E4988616E48006820F47060D9
:100510006C4908600846006840F40060086069485B
:100520000C30006840F0040066490C3108606448F3
:10053000806940F00100624988616348806820F466
:100540007060614988600846806840F48060886017
:100550005E48006840F004005C4908605B480C306D
:10056000006840F0040059490C3108606521584882
:1005700001705848006840F480704FF0E021C1F8E5
:10058000000170474E48806940F004004C49886182
:100590005148006820F00F004F4908600846006885
:1005A00040F0080008604C480C3000684A490C31A3
:1005B00008604348806940F0010041498861424831
:1005C000806820F00F004049886008468068886095
:1005D0003E48006840F001003C4908603B480C3050
:1005E000006840F0010039490C3108603521384875
:1005F000801E01703748006840F040004FF0E02155
:10060000C1F800017047014601F007021202334BA6
:1006100018684FF6FF031840314B184310432F4B17
:100620001860704710B500240EE020202D490860A6
:100630002D48FFF714FE20202A49091F08602A4888
:10064000FFF70DFE601CC4B20A2CEEDB04201F492C
:100650001431086010BD10B500240FE020201949A6
:10066000143108602048FFF7FAFD202015491031A9
:1006700008601D48FFF7F3FD601CC4B20A2CEDDBD7
:1006800012481430006840F001001049143108602D
:1006900010BDFFF79BFDFFF7F1FD0520FFF7B3FF4E
:1006A000FFF72CFFFFF76EFF20200E49091F08609F
:1006B00004E00E480068401C0C490860F9E700009F
:1006C00000100240001801400000014000040140F9
:1006D00008E400E000E100E0000801400CED00E06B
:1006E0000000FA05140C014040420F0014000020E5
:1006F000704700BFFEE700BFFEE700BFFEE700BF98
:10070000FEE7704770477047704770477047704703
:10071000754600F02BF8AE4605006946534620F0BA
:100720000700854618B020B5FFF7D6FEBDE820408B
:100730004FF000064FF000074FF000084FF0000B9D
:1007400021F00701AC46ACE8C009ACE8C009ACE850
:10075000C009ACE8C0098D46704710B50446AFF338
:1007600000802046BDE81040FFF729BD00487047D3
:100770001800002001491820ABBEFEE72600020049
:1007800070470000A40700080000002018000000C7
:100790006C010008BC07000818000020600600007B
:1007A0008801000800A24A040000000000000000C8
:0C07B00001020304060708090000000015
:04000005080004BD2E
:00000001FF
