:020000040800F2
:1000000078060020AD030008B9060008BB0600080A
:10001000BF060008C3060008C7060008000000006D
:10002000000000000000000000000000CB060008F7
:10003000CD06000800000000CF060008D106000829
:10004000C7030008C7030008C7030008C703000868
:10005000C7030008C7030008C7030008C703000858
:10006000C7030008C7030008C7030008C703000848
:10007000C7030008C7030008C7030008C703000838
:10008000C7030008C7030008C7030008C703000828
:10009000C7030008C7030008C7030008C703000818
:1000A000C7030008C7030008C7030008C703000808
:1000B000C7030008C7030008C7030008C7030008F8
:1000C000C7030008C7030008C7030008C7030008E8
:1000D000C7030008C7030008C7030008C7030008D8
:1000E000C7030008C7030008C7030008C7030008C8
:1000F000C7030008C7030008C7030008C7030008B8
:10010000C7030008C7030008C7030008C7030008A7
:10011000C7030008C7030008C7030008C703000897
:10012000C7030008C7030008C7030008C703000887
:1001300000F002F800F03AF80AA090E8000C8244BF
:100140008344AAF10107DA4501D100F02FF8AFF29C
:10015000090EBAE80F0013F0010F18BFFB1A43F0A5
:1001600001031847300B0000500B0000103A24BF69
:1001700078C878C1FAD8520724BF30C830C144BF0C
:1001800004680C607047000000230024002500264E
:10019000103A28BF78C1FBD8520728BF30C148BFEA
:1001A0000B6070471FB51FBD10B510BD00F094FA6D
:1001B0001146FFF7F7FF00F065FA00F0B2FA03B45A
:1001C000FFF7F2FF03BC00F0B9FA00000CB5002005
:1001D000019000906C48006840F480306A490860E3
:1001E00000BF6948006800F4003000900198401C8E
:1001F0000190009818B90198B0F5A06FF1D162484C
:10020000006800F4003010B10120009001E00020EF
:1002100000900098012843D15C48006840F010002D
:100220005A4908600846006820F003000860084644
:10023000006840F002000860534840685249486036
:100240000846406848600846406840F4806048605E
:100250000846406820F47C1048600846406840F436
:10026000E81048600846006840F08070086000BFF1
:100270004548006800F000700028F9D04248406806
:1002800020F00300404948600846406840F0020002
:10029000486000BF3C48406800F00C000828F9D1D5
:1002A0000CBD10B5FFF792FF10BD10B536480068C1
:1002B00040F001003449086008464068344908406D
:1002C0003149486008460068324908402E490860B4
:1002D0000846006820F4802008600846406820F442
:1002E000FE0048604FF41F008860FFF7DAFF4FF010
:1002F00000602949086010BD10B5002100200022CF
:10030000214B5B6803F00C0121B1042906D00829B8
:1003100028D107E0214B224C236027E01F4B204CC3
:10032000236023E0184B5B6803F47010164B5B6886
:1003300003F48032022303EB904022B9194B43436C
:10034000174C23600DE0104B5B6803F4003323B1BE
:10035000144B4343124C236003E0104B4343104CB7
:10036000236003E00D4B0E4C236000BF00BF064B23
:100370005B68C3F303130C4CE15C094B1B68CB4077
:10038000074C236010BD0000001002400020024016
:100390000000FFF8FFFFF6FE08ED00E000127A0013
:1003A0000000002000093D000400002009488047AB
:1003B00009480047FEE7FEE7FEE7FEE7FEE7FEE747
:1003C000FEE7FEE7FEE7FEE704480549054A064B5F
:1003D00070470000AB0200083101000878000020DF
:1003E00078060020780200207802002007210020F3
:1003F000264A5268264B1A40244B5A601A46126805
:10040000244B1A40214B1A601A46126842F480327B
:100410001A6000BF1D4A1268520C002AFAD04FF42D
:1004200080621A4B5A601A46526842EA81425A6008
:100430001A46526842F480325A60174A126842F0F3
:100440003202154B1A60114A126842F080720F4B4B
:100450001A6000BF0D4A1268520E002AFAD00B4AE9
:10046000526842F00202094B5A6005E0074A52689E
:10047000C2F3870000F003000228F7D17047002183
:1004800000E0491C8142FCD370470000001002408C
:100490000000FFF8FFFFF6FE002002402DE9F05FAC
:1004A00005460E46300100F095FA8146704905FB7D
:1004B00001F000F08FFA8246494600F0A9F907469C
:1004C000384600F067FA84B2204600F083FA83468B
:1004D000394600F05FFB82464FF0834100F08EFA10
:1004E000814600F057FA80464FF6FF7000EA041488
:1004F00004EB080084B25F48806940F004005D4965
:1005000088610846C06940F40030C8615A480068F4
:1005100020F47F40584908600846006840F40B40CA
:1005200008605448006940F40030524908610846A8
:10053000006920F40030086150480480001D0088E4
:1005400042F2080108434D49091D0880BDE8F09FAB
:100550002DE9F05F05460E46300100F03BFA81467A
:10056000434905FB01F000F035FA8246494600F0A8
:100570004FF90746384600F00DFA84B2204600F0E5
:1005800029FA8346394600F005FB82464FF0834145
:1005900000F034FA814600F0FDF980464FF6FF7016
:1005A00000EA041404EB080084B23248806940F089
:1005B0000400304988610846806940F480408861C1
:1005C0002D48001D006820F47F602B49091D08603C
:1005D0000846006840F40B6008602648C06840F494
:1005E00080402449C8600846C06820F48040C86044
:1005F00023480480001D008842F208010843204976
:10060000091D0880BDE8F09F10B5024600202AE0D1
:10061000012A10D10B5C1A4C241F238000BF184BF9
:10062000083B1B8803F08003154C083C2380012401
:10063000B4EBE31FF3D1022A10D10B5C0F4C241F43
:10064000238000BF0D4B083B1B8803F080030B4C3D
:10065000083C23800124B4EBE31FF3D1FF2800D131
:1006600004E0431CD8B20B5C002BD1D100BF10BDFD
:1006700040420F00001002400008014008440040C2
:100680000838014010B5FFF7B1FE4FF4165148206D
:10069000FFF75EFF4FF416512420FFF7FFFE03A182
:1006A0000220FFF7B1FF002010BD000031313535C9
:1006B0003130373736330000704700BFFEE700BFE8
:1006C000FEE700BFFEE700BFFEE7704770477047D8
:1006D0007047704770477047754600F02BF8AE467C
:1006E00005006946534620F00700854618B020B53E
:1006F000FFF76AFEBDE820404FF000064FF000070C
:100700004FF000084FF0000B21F00701AC46ACE8B9
:10071000C009ACE8C009ACE8C009ACE8C0098D4626
:10072000704710B50446AFF300802046BDE8104086
:10073000FFF745BD0048704714000020014918200C
:10074000ABBEFEE7260002007047000090EA010FF2
:1007500048BF81F0004100F12E82421A3CBF801A4E
:1007600089184FEAD0524FF07F4C1CEA410FA2EBA0
:10077000D15318BF9CEA026F00F03B804FF0004C51
:100780004CEA00204CEA012121FA03FC10EB0C0C8E
:100790001ED202F1FF325FEA1C2040EBC25038BF8C
:1007A00070471CF07F0F4FEA400C18BFBCF17F4F21
:1007B00038BF7047C3F12003994008BF20F0010003
:1007C000BCF17F4F38BF7047A0F1C04000F0DDB9E9
:1007D0004FEA3C00000A40EBC25028BF1CF0FF0F5C
:1007E0004FEA400CE6D018BFBCF17F4F38BF7047CE
:1007F000EAE79CEA026F05D010EA5C0F08BF00F040
:100800000040704710B500F07AF900BF64FBBE3EAF
:100810004FF47F0C1CEAD0121EBF1CEAD11392EADF
:100820000C0F93EA0C0F00F0858090EA010F48BF8F
:1008300042F4807240F4000C41F400002CF07F413F
:1008400020F07F4000B58142A2EB03020FF2081CAA
:10085000ACEB504EC0F100009EF800E04FEA4E0EA7
:1008600000FB0EFC38BF49004FEA2C1C02F5FA02CF
:100870000CFB0EF34FEACE1E4FEA112C4FEAC121BA
:100880000EEB635E42EB22420EFB0CFC4FEA1C5364
:1008900000FB03114FEA112C4FEA01310EFB0CFC57
:1008A0004FEADC4C00FB0C11C14228BF09184CEB8D
:1008B00003335DF804EB10EB410143EBC250B2F59A
:1008C0007C0F38BF704729D512F0F00F1CBF00F124
:1008D000C04000F000407047008182838485868795
:1008E00088898B8C8D8E8F919293959697999A9CEF
:1008F0009D9FA0A2A3A5A7A8AAACAEB0B2B3B5B75E
:10090000B9BCBEC0C2C5C7C9CCCED1D4D7D9DCDF33
:10091000E2E6E9ECF0F3F7FAFE0000004FEA400CE3
:100920000CF1807CBCF17E4F28BF7047B0F1C04015
:1009300000F02BB990EA010F0CEAD11348BF42F442
:100940008072624538BF634507D213F47F0F16D01B
:1009500080EA010000F00040704710B500F0CFF8C9
:10096000097EFC3E00F005B880EA010000F000407E
:10097000704780EA010000F0004000F006B912F470
:100980007F0F04BF0248704780EA010000F0FDB805
:100990000000C07FC10DD1F19E0206DB4FEA0023AB
:1009A00043F0004323FA02F07047004207D54FEAB4
:1009B0004001B1F1FE4F02D24FF00000704710B578
:1009C00000F09DF849922480002070476FEA2000D3
:1009D00070470000B0FA80F310FA03F2C3F19D03F0
:1009E0000AD0D90501EB1220530638BF704700F139
:1009F000010008BF20F00100704700004FF47F0C99
:100A00001CEAD0121EBF1CEAD11392EA0C0F93EA23
:100A10000C0F00F0478090EA010F48BF42F480724B
:100A20004FF0004C4CEA00204CEA012102EB03029B
:100A3000A0FB0113A2F50002002918BF43F0010337
:100A40005B0028BF4FEA330342EB22425FEA132CDC
:100A50004CEBC2502EBFBCEB436FB2F57C0F70471E
:100A60004FEA036CBCF1004F08BF20F00100B2F563
:100A70007C0F38BF70470BD582F0FF0212F5803F24
:100A8000C8BF704700F1C040D8BF00F000407047B9
:100A900000F5000C5FEA4C0C48BF7047B0F1C04055
:100AA00000F073B890EA010F0CEAD11348BF42F48A
:100AB0008072624538BF634504D280EA010000F0CD
:100AC0000040704710B500F01AF800BF8900013EE1
:100AD00000F007B800F009B85FEA410C5FEA1C6C4F
:100AE00008D080EA010000F050B85FEA400C5FEAED
:100AF0001C6CF6D14FF00040A0F5800070470EF15D
:100B0000020E2EF0030E5EF8044B244204D44FEA8A
:100B10004102B2F17F4F11D84FEA4003B3F17F4F4A
:100B20000CD80ED14FEAD07CB2F17F4F0CEB4C0CBD
:100B30000CF1020C08BF4CEBD17C04E04FF0080C28
:100B400001E04FEAD17C0CEB4C0324FA03F404F0EF
:100B50000704B4F1040C06D20EEB840CBDE810407F
:100B60004CF0010C6047DFE80CF0070802024FF080
:100B70000040A0F5800010BD0846420018BFD2F129
:100B8000807288BF00F0004010BDFF2141EAD050C4
:100B9000C005704780F0004090EA010F7FF5DDADA1
:100BA00081F0004100F007B890EA010F48BF81F0E2
:100BB00000413FF5D2AD421A04D882F00042A0EBCA
:100BC000020011444FEAD0524FF07F4C1CEA410F13
:100BD000A2EBD15318BF9CEA026F4AD04FF0004CF1
:100BE0004CEA00204CEA012121FA03FCB0EB0C0C8A
:100BF0000FD412F0FE0F36D05FEA4C001DD5001264
:100C000040EBC25038BF70471CF03F0F18BF704711
:100C10000BE0A2F101025FEA1C2040EBC25038BF9A
:100C200070471CF07F0F18BF7047C3F12003994035
:100C300014BF401E20F00100704780084FEA1223C5
:100C400008BF7047B0FA80FCA2EB0C02CCF1280C74
:100C500060FA0CF093EA122F04BF00EBC250704709
:100C60004FEAC3707047130A5FEADC1008BF704791
:100C7000F6E79CEA026F04D010EA5C0F08BF002080
:100C8000704710B5FFF73BFF40DFF63E81F00040B4
:100C900070470000B40C00080000002014000000A1
:100CA0006C010008C80C0008140000206406000055
:100CB0008801000800A24A040000000000000000B3
:080CC000010203040607080904
:04000005080003AD3F
:00000001FF
