:020000040800F2
:1000000078060020AD03000891050008930500085C
:10001000970500089B0500089F05000800000000E8
:10002000000000000000000000000000A305000820
:10003000A505000800000000A7050008A9050008A4
:10004000C7030008C7030008C7030008C703000868
:10005000C7030008C7030008C7030008C703000858
:10006000C7030008C7030008C7030008C703000848
:10007000C7030008C7030008C7030008C703000838
:10008000C7030008C7030008C7030008C703000828
:10009000C7030008C7030008C7030008C703000818
:1000A000C7030008C7030008C7030008C703000808
:1000B000C7030008C7030008C7030008C7030008F8
:1000C000C7030008C7030008C7030008C7030008E8
:1000D000C7030008C7030008C7030008C7030008D8
:1000E000C7030008C7030008C7030008C7030008C8
:1000F000C7030008C7030008C7030008C7030008B8
:10010000C7030008C7030008C7030008C7030008A7
:10011000C7030008C7030008C7030008C703000897
:10012000C7030008C7030008C7030008C703000887
:1001300000F002F800F03AF80AA090E8000C8244BF
:100140008344AAF10107DA4501D100F02FF8AFF29C
:10015000090EBAE80F0013F0010F18BFFB1A43F0A5
:1001600001031847080A0000280A0000103A24BFBB
:1001700078C878C1FAD8520724BF30C830C144BF0C
:1001800004680C607047000000230024002500264E
:10019000103A28BF78C1FBD8520728BF30C148BFEA
:1001A0000B6070471FB51FBD10B510BD00F000FA01
:1001B0001146FFF7F7FF00F0C2F900F01EFA03B492
:1001C000FFF7F2FF03BC00F025FA00000CB5002099
:1001D000019000906C48006840F480306A490860E3
:1001E00000BF6948006800F4003000900198401C8E
:1001F0000190009818B90198B0F5A06FF1D162484C
:10020000006800F4003010B10120009001E00020EF
:1002100000900098012843D15C48006840F010002D
:100220005A4908600846006820F003000860084644
:10023000006840F002000860534840685249486036
:100240000846406848600846406840F4806048605E
:100250000846406820F47C1048600846406840F436
:10026000E81048600846006840F08070086000BFF1
:100270004548006800F000700028F9D04248406806
:1002800020F00300404948600846406840F0020002
:10029000486000BF3C48406800F00C000828F9D1D5
:1002A0000CBD10B5FFF792FF10BD10B536480068C1
:1002B00040F001003449086008464068344908406D
:1002C0003149486008460068324908402E490860B4
:1002D0000846006820F4802008600846406820F442
:1002E000FE0048604FF41F008860FFF7DAFF4FF010
:1002F00000602949086010BD10B5002100200022CF
:10030000214B5B6803F00C0121B1042906D00829B8
:1003100028D107E0214B224C236027E01F4B204CC3
:10032000236023E0184B5B6803F47010164B5B6886
:1003300003F48032022303EB904022B9194B43436C
:10034000174C23600DE0104B5B6803F4003323B1BE
:10035000144B4343124C236003E0104B4343104CB7
:10036000236003E00D4B0E4C236000BF00BF064B23
:100370005B68C3F303130C4CE15C094B1B68CB4077
:10038000074C236010BD0000001002400020024016
:100390000000FFF8FFFFF6FE08ED00E000127A0013
:1003A0000000002000093D000400002009488047AB
:1003B00009480047FEE7FEE7FEE7FEE7FEE7FEE747
:1003C000FEE7FEE7FEE7FEE704480549054A064B5F
:1003D00070470000AB0200083101000878000020DF
:1003E000780600207802002078020020002100E03A
:1003F000491C8142FCD370472DE9F05F05460E464B
:10040000300100F053FA8146584905FB01F000F035
:100410004DFA8246494600F067F90746384600F033
:1004200025FA84B2204600F041FA8346394600F0AE
:100430001DFB82464FF0834100F04CFA814600F0EC
:1004400015FA80464FF6FF7000EA041404EB08002A
:1004500084B24748806940F00400454988610846F5
:10046000806940F4804088614248006820F47F60E1
:10047000404908600846006840F40B6008603C484A
:10048000C06840F480403A49C8600846C06820F41B
:100490008040C86038480480001D008842F208018E
:1004A00008433549091D0880BDE8F09F0721002059
:1004B0002F4A5268314B1A402D4B5A601A46126827
:1004C0002F4B1A402A4B1A601A46126842F48032A7
:1004D0001A6000BF264A1268520C002AFAD04FF464
:1004E0008072234B5A601A46526842EA81425A602F
:1004F0001A46526842F480325A60224A126842F028
:100500003202204B1A601A4A126842F08072184B6D
:100510001A6000BF164A1268520E002AFAD0144A16
:10052000526842F00202124B5A6005E0104A5268CB
:10053000C2F3870000F003000228F7D17047FFF7ED
:10054000B5FF4FF416514820FFF756FF0E48FFF74E
:100550004DFF09E042200D4908804CF25030FFF772
:1005600045FF0248FFF742FFF4E7000040420F005A
:100570000010024004080140084400400000FFF859
:10058000FFFFF6FE0020024000127A00043801400E
:10059000704700BFFEE700BFFEE700BFFEE700BFF9
:1005A000FEE7704770477047704770477047704765
:1005B000754600F02BF8AE4605006946534620F01C
:1005C0000700854618B020B5FFF7FEFEBDE82040C5
:1005D0004FF000064FF000074FF000084FF0000BFF
:1005E00021F00701AC46ACE8C009ACE8C009ACE8B2
:1005F000C009ACE8C0098D46704710B50446AFF39A
:1006000000802046BDE81040FFF7D9BD0048704784
:100610001400002001491820ABBEFEE726000200AE
:100620007047000090EA010F48BF81F0004100F1DF
:100630002E82421A3CBF801A89184FEAD0524FF0DE
:100640007F4C1CEA410FA2EBD15318BF9CEA026F0A
:1006500000F03B804FF0004C4CEA00204CEA0121B6
:1006600021FA03FC10EB0C0C1ED202F1FF325FEA00
:100670001C2040EBC25038BF70471CF07F0F4FEA80
:10068000400C18BFBCF17F4F38BF7047C3F1200347
:10069000994008BF20F00100BCF17F4F38BF704780
:1006A000A0F1C04000F0DDB94FEA3C00000A40EB89
:1006B000C25028BF1CF0FF0F4FEA400CE6D018BF15
:1006C000BCF17F4F38BF7047EAE79CEA026F05D064
:1006D00010EA5C0F08BF00F00040704710B500F052
:1006E0007AF900BF64FBBE3E4FF47F0C1CEAD012C7
:1006F0001EBF1CEAD11392EA0C0F93EA0C0F00F014
:10070000858090EA010F48BF42F4807240F4000CEB
:1007100041F400002CF07F4120F07F4000B5814281
:10072000A2EB03020FF2081CACEB504EC0F100002C
:100730009EF800E04FEA4E0E00FB0EFC38BF490069
:100740004FEA2C1C02F5FA020CFB0EF34FEACE1E08
:100750004FEA112C4FEAC1210EEB635E42EB2242BD
:100760000EFB0CFC4FEA1C5300FB03114FEA112C4B
:100770004FEA01310EFB0CFC4FEADC4C00FB0C1184
:10078000C14228BF09184CEB03335DF804EB10EBB2
:10079000410143EBC250B2F57C0F38BF704729D5F9
:1007A00012F0F00F1CBF00F1C04000F00040704795
:1007B000008182838485868788898B8C8D8E8F913A
:1007C0009293959697999A9C9D9FA0A2A3A5A7A85E
:1007D000AAACAEB0B2B3B5B7B9BCBEC0C2C5C7C98A
:1007E000CCCED1D4D7D9DCDFE2E6E9ECF0F3F7FAEE
:1007F000FE0000004FEA400C0CF1807CBCF17E4F03
:1008000028BF7047B0F1C04000F02BB990EA010F4B
:100810000CEAD11348BF42F48072624538BF634589
:1008200007D213F47F0F16D080EA010000F00040D9
:10083000704710B500F0CFF8097EFC3E00F005B817
:1008400080EA010000F00040704780EA010000F0FB
:10085000004000F006B912F47F0F04BF0248704751
:1008600080EA010000F0FDB80000C07FC10DD1F1A9
:100870009E0206DB4FEA002343F0004323FA02F016
:100880007047004207D54FEA4001B1F1FE4F02D256
:100890004FF00000704710B500F09DF84992248099
:1008A000002070476FEA200070470000B0FA80F324
:1008B00010FA03F2C3F19D030AD0D90501EB12200F
:1008C000530638BF704700F1010008BF20F0010057
:1008D000704700004FF47F0C1CEAD0121EBF1CEAC8
:1008E000D11392EA0C0F93EA0C0F00F0478090EAC4
:1008F000010F48BF42F480724FF0004C4CEA0020D8
:100900004CEA012102EB0302A0FB0113A2F5000255
:10091000002918BF43F001035B0028BF4FEA3303EF
:1009200042EB22425FEA132C4CEBC2502EBFBCEBD1
:10093000436FB2F57C0F70474FEA036CBCF1004F78
:1009400008BF20F00100B2F57C0F38BF70470BD50F
:1009500082F0FF0212F5803FC8BF704700F1C0402F
:10096000D8BF00F00040704700F5000C5FEA4C0C67
:1009700048BF7047B0F1C04000F073B890EA010F73
:100980000CEAD11348BF42F48072624538BF634518
:1009900004D280EA010000F00040704710B500F07A
:1009A0001AF800BF8900013E00F007B800F009B84E
:1009B0005FEA410C5FEA1C6C08D080EA010000F09D
:1009C00050B85FEA400C5FEA1C6CF6D14FF0004073
:1009D000A0F5800070470EF1020E2EF0030E5EF8B7
:1009E000044B244204D44FEA4102B2F17F4F11D8A4
:1009F0004FEA4003B3F17F4F0CD80ED14FEAD07CC1
:100A0000B2F17F4F0CEB4C0C0CF1020C08BF4CEB1D
:100A1000D17C04E04FF0080C01E04FEAD17C0CEBF4
:100A20004C0324FA03F404F00704B4F1040C06D2D6
:100A30000EEB840CBDE810404CF0010C6047DFE881
:100A40000CF0070802024FF00040A0F5800010BD36
:100A50000846420018BFD2F1807288BF00F0004003
:100A600010BDFF2141EAD050C005704780F0004022
:100A700090EA010F7FF5DDAD81F0004100F007B88D
:100A800090EA010F48BF81F000413FF5D2AD421A14
:100A900004D882F00042A0EB020011444FEAD05289
:100AA0004FF07F4C1CEA410FA2EBD15318BF9CEAD8
:100AB000026F4AD04FF0004C4CEA00204CEA012172
:100AC00021FA03FCB0EB0C0C0FD412F0FE0F36D061
:100AD0005FEA4C001DD5001240EBC25038BF704792
:100AE0001CF03F0F18BF70470BE0A2F101025FEA54
:100AF0001C2040EBC25038BF70471CF07F0F18BF5E
:100B00007047C3F12003994014BF401E20F001003C
:100B1000704780084FEA122308BF7047B0FA80FC84
:100B2000A2EB0C02CCF1280C60FA0CF093EA122F25
:100B300004BF00EBC25070474FEAC3707047130AFE
:100B40005FEADC1008BF7047F6E79CEA026F04D04A
:100B500010EA5C0F08BF0020704710B5FFF73BFF9D
:100B600040DFF63E81F00040704700008C0B00082B
:100B700000000020140000006C010008A00B000819
:100B800014000020640600008801000800A24A0446
:100B9000000000000000000001020304060708092D
:04000005080003AD3F
:00000001FF
